{
  "contractName": "NewHelloWorld",
  "abi": [
    {
      "constant": true,
      "inputs": [],
      "name": "getMessage",
      "outputs": [
        {
          "internalType": "string",
          "name": "",
          "type": "string"
        }
      ],
      "payable": false,
      "stateMutability": "view",
      "type": "function"
    },
    {
      "constant": false,
      "inputs": [
        {
          "internalType": "string",
          "name": "_message",
          "type": "string"
        }
      ],
      "name": "setMessage",
      "outputs": [
        {
          "internalType": "bool",
          "name": "",
          "type": "bool"
        }
      ],
      "payable": false,
      "stateMutability": "nonpayable",
      "type": "function"
    },
    {
      "constant": true,
      "inputs": [
        {
          "internalType": "uint256",
          "name": "first",
          "type": "uint256"
        },
        {
          "internalType": "uint256",
          "name": "second",
          "type": "uint256"
        }
      ],
      "name": "sumTwoNumbers",
      "outputs": [
        {
          "internalType": "uint256",
          "name": "value",
          "type": "uint256"
        }
      ],
      "payable": false,
      "stateMutability": "pure",
      "type": "function"
    },
    {
      "constant": true,
      "inputs": [
        {
          "internalType": "uint256",
          "name": "first",
          "type": "uint256"
        },
        {
          "internalType": "uint256",
          "name": "second",
          "type": "uint256"
        }
      ],
      "name": "MultiplyTwoNumbers",
      "outputs": [
        {
          "internalType": "uint256",
          "name": "value",
          "type": "uint256"
        }
      ],
      "payable": false,
      "stateMutability": "pure",
      "type": "function"
    }
  ],
  "bytecode": "0x608060405234801561001057600080fd5b506103f7806100206000396000f3fe608060405234801561001057600080fd5b506004361061004c5760003560e01c8063368b87721461005157806383b0c94114610124578063b5a54e7014610170578063ce6d41de146101bc575b600080fd5b61010a6004803603602081101561006757600080fd5b810190808035906020019064010000000081111561008457600080fd5b82018360208201111561009657600080fd5b803590602001918460018302840111640100000000831117156100b857600080fd5b91908080601f016020809104026020016040519081016040528093929190818152602001838380828437600081840152601f19601f82011690508083019250505050505050919291929050505061023f565b604051808215151515815260200191505060405180910390f35b61015a6004803603604081101561013a57600080fd5b810190808035906020019092919080359060200190929190505050610261565b6040518082815260200191505060405180910390f35b6101a66004803603604081101561018657600080fd5b81019080803590602001909291908035906020019092919050505061026e565b6040518082815260200191505060405180910390f35b6101c461027b565b6040518080602001828103825283818151815260200191508051906020019080838360005b838110156102045780820151818401526020810190506101e9565b50505050905090810190601f1680156102315780820380516001836020036101000a031916815260200191505b509250505060405180910390f35b6000816000908051906020019061025792919061031d565b5060019050919050565b6000818301905092915050565b6000818302905092915050565b606060008054600181600116156101000203166002900480601f0160208091040260200160405190810160405280929190818152602001828054600181600116156101000203166002900480156103135780601f106102e857610100808354040283529160200191610313565b820191906000526020600020905b8154815290600101906020018083116102f657829003601f168201915b5050505050905090565b828054600181600116156101000203166002900490600052602060002090601f016020900481019282601f1061035e57805160ff191683800117855561038c565b8280016001018555821561038c579182015b8281111561038b578251825591602001919060010190610370565b5b509050610399919061039d565b5090565b6103bf91905b808211156103bb5760008160009055506001016103a3565b5090565b9056fea265627a7a7231582095cd070023c6b110373aceb7f86dca6a63b72ba4706e67d27b8b8ba082c923e864736f6c63430005100032",
  "source": "pragma solidity ^0.5.16;\n\ncontract NewHelloWorld{\n\n    string message;\n\n    function getMessage() public view returns (string memory){\n        return (message);\n    }\n\n    function setMessage(string memory _message) public returns (bool){\n        message = _message;\n        return true;\n    }\n\n    function sumTwoNumbers(uint first, uint second) public pure returns (uint value ){\n        return first + second;\n    }\n\n    function MultiplyTwoNumbers(uint first, uint second) public pure returns (uint value ){\n        return first * second;\n    }\n\n}",
  "sourcePath": "/home/user/src/lottery-smart-contract/backend/contracts/NewHelloWorld.sol",
  "compiler": {
    "name": "solc",
    "version": "0.5.16+commit.9c3226ce.Emscripten.clang"
  },
  "schemaVersion": "3.3.4",
  "updatedAt": "2023-02-16T18:31:52.125Z",
  "networkType": "ethereum",
  "devdoc": {
    "methods": {}
  },
  "userdoc": {
    "methods": {}
  }
}